:100000000C9462000C948A000C948A000C948A0070
:100010000C948A000C948A000C948A000C948A0038
:100020000C948A000C948A000C948A000C948A0028
:100030000C948A000C948A000C948A000C948A0018
:100040000C9437020C948A000C94A7030C948A0039
:100050000C948A000C948A000C948A000C948A00F8
:100060000C948A000C948A000000000024002700F1
:100070002A0000000000250028002B0000000000DE
:1000800023002600290004040404040404040202DA
:100090000202020203030303030301020408102007
:1000A0004080010204081020010204081020000012
:1000B0000007000201000003040600000000000029
:1000C0000000F00411241FBECFEFD8E0DEBFCDBF8B
:1000D00011E0A0E0B1E0EAECFDE002C005900D9275
:1000E000AA32B107D9F711E0AAE2B1E001C01D922E
:1000F000AA3CB107E1F710E0C4ECD0E004C02297BD
:10010000FE010E94DF06C23CD107C9F70E943002FF
:100110000C94E3060C9400002F923F924F925F9252
:100120006F927F928F929F92AF92BF92CF92DF9207
:10013000EF92FF920F931F93DF93CF93CDB7DEB76C
:10014000E8970FB6F894DEBF0FBECDBF80911701C0
:1001500061E00E94D9028091150160E020E432E460
:100160004FE050E00E94260368597840804090405C
:1001700090F38091150160E020E432E44FE050E01C
:100180000E9426036DAB7EAB8FAB98AF80911501BB
:1001900060E020E432E44FE050E00E94260369ABC7
:1001A0007AAB8BAB9CAB8091150160E020E432E42C
:1001B0004FE050E00E9426036DA77EA78FA798AB63
:1001C0008091150160E020E432E44FE050E00E94AD
:1001D000260369A77AA78BA79CA78091150160E0E9
:1001E00020E432E44FE050E00E9426036DA37EA39A
:1001F0008FA398A78091150160E020E432E44FE0DE
:1002000050E00E94260369A37AA38BA39CA380914C
:10021000150160E020E432E44FE050E00E94260344
:100220006D8F7E8F8F8F98A38091150160E020E401
:1002300032E44FE050E00E942603698F7A8F8B8F63
:100240009C8F8091150160E020E432E44FE050E0A3
:100250000E9426031B012C018091150160E020E41F
:1002600032E44FE050E00E9426033B014C018091B4
:10027000150160E020E432E44FE050E00E942603E4
:100280005B016C018091150160E020E432E44FE0F5
:1002900050E00E9426037B018C018091170160E0F1
:1002A0000E94D9028091190190911A01019731F4AD
:1002B00087EB91E060E071E00E9480058DA99EA926
:1002C0009A838983E9A9FAA9FC83EB838DA59EA56E
:1002D0009E838D83E9A5FAA5F887EF838DA19EA162
:1002E0009A878987E9A1FAA1FC87EB878D8D9E8D7E
:1002F0009E878D87E98DFA8DF88BEF873A8A298A58
:100300007C8A6B8ABE8AAD8AF88EEF8A7E01089459
:10031000E11CF11C870132E0832E912C21E0A22EFA
:10032000B12C99E1C92ED12CCC0EDD1E8091190182
:1003300090911A01019739F4F8016081718187EB7E
:1003400091E00E944A06F8012081318180911B01D1
:1003500090911C01821793071CF4B182A0820EC0F9
:1003600080911D0190911E018217930724F4F801DA
:100370001182108203C0F801918280820E5F1F4FAC
:100380000C151D0599F6F701808191810297ECF417
:1003900082E090E0E80EF91EE016F106A1F7FE01FA
:1003A000779620E030E041E050E0BE0161507040BF
:1003B00080819181019711F4240F351F3297E61740
:1003C000F70729F0440F551FF3CF2FEF3FEFC90177
:1003D000E8960FB6F894DEBF0FBECDBFCF91DF9188
:1003E0001F910F91FF90EF90DF90CF90BF90AF9053
:1003F0009F908F907F906F905F904F903F902F9045
:100400000895CF93DF930E948C00EC018FEFCF3FD4
:10041000D80759F087EB91E066E071E00E94610532
:1004200087EB91E0BE010E944A06DF91CF910895CB
:100430008091170161E00E94B9028091150160E08E
:100440000E94B9028091170160E00E94D90287EBF7
:1004500091E040E855E260E070E00E94E403089516
:100460000E947F020E9418020E940102FDCF1F928B
:100470000F920FB60F9211242F933F938F939F9358
:10048000AF93BF9380912E0190912F01A0913001E5
:10049000B0913101309132010196A11DB11D232F80
:1004A0002D5F2D3720F02D570196A11DB11D2093F2
:1004B000320180932E0190932F01A0933001B093CD
:1004C000310180912A0190912B01A0912C01B091D2
:1004D0002D010196A11DB11D80932A0190932B013E
:1004E000A0932C01B0932D01BF91AF919F918F915B
:1004F0003F912F910F900FBE0F901F9018957894F9
:1005000084B5826084BD84B5816084BD85B5826018
:1005100085BD85B5816085BDEEE6F0E080818160B6
:100520008083E1E8F0E08081826080838081816067
:100530008083E0E8F0E0808181608083E1EBF0E09F
:10054000808184608083E0EBF0E080818160808343
:10055000EAE7F0E08081846080838081826080832C
:100560008081816080838081806880831092C10057
:100570000895282F30E0C90186569F4FFC019491C1
:100580002A573F4FF9018491882391F0E82FF0E03A
:10059000EE0FFF1FE859FF4FA591B491662329F490
:1005A0008C91909589238C9308958C91892B8C93B1
:1005B0000895482F50E0CA0182559F4FFC012491B5
:1005C000CA0186569F4FFC0194914A575F4FFA012A
:1005D00034913323D1F1222331F1233021F480915E
:1005E00080008F7705C0243031F4809180008F7DAA
:1005F0008093800018C0213019F484B58F7704C02F
:10060000223021F484B58F7D84BD0DC0263021F4C5
:100610008091B0008F7705C0273029F48091B00019
:100620008F7D8093B000E32FF0E0EE0FFF1FEE58B8
:10063000FF4FA591B491662329F48C91909589235D
:100640008C9308958C91892B8C930895DF92EF926F
:10065000FF920F931F93A82FB0E0CD0186569F4FB6
:10066000FC01D490AA57BF4FFD018491662311F479
:1006700090E001C09D2D6FEFE62E6FEFF62E6FEF2D
:10068000062F6FE0162FE222F32204231523682F92
:1006900070E0660F771F64587F4F20E030E040E045
:1006A00050E0FB01A591B4910AC02E153F0540070B
:1006B000510709F440C02F5F3F4F4F4F5F4F8C9160
:1006C0008D21891791F30AC02E153F054007510768
:1006D00091F12F5F3F4F4F4F5F4F03C0FB01A5913B
:1006E000B4918C918D21891779F720E030E040E0BA
:1006F00050E0FB01A591B49104C02F5F3F4F4F4FD5
:100700005F4F8C918D218917C1F3CA01B9012AE08D
:1007100030E040E050E00E945A069B01AC01205FAF
:100720003F4F4F4F5F4F84E056954795379527953C
:100730008A95D1F704C020E030E040E050E0B901F4
:10074000CA011F910F91FF90EF90DF9008951F92C3
:100750000F920FB60F9211242F933F934F935F93F5
:100760006F937F938F939F93AF93BF93EF93FF9379
:100770004091C600E091B301F091B401CF01019620
:1007800060E870E00E9479069C018091B50190912B
:10079000B6012817390739F0ED5CFE4F40833093DE
:1007A000B4012093B301FF91EF91BF91AF919F915D
:1007B0008F917F916F915F914F913F912F910F900A
:1007C0000FBE0F901F9018955F926F927F928F923D
:1007D0009F92AF92BF92CF92DF92EF92FF920F93D0
:1007E0001F93CF93DF93EC013A014B01413482E434
:1007F00058078FE0680780E078070CF07FC060E85A
:1008000074E88EE190E0A40193010E94AE062150AD
:10081000304040405040CA01B90122E030E040E0A1
:1008200050E00E94AE0659016A01A601950120958B
:1008300030954095509594E0220F331F441F551F6B
:100840009A95D1F760E074E284EF90E00E94AE06E2
:10085000CA01B9012FEF30E040E050E00E945A0693
:10086000A40193010E94AE06C90181509F4F181642
:1008700019061CF4522E5A9403C055245394521A4C
:1008800060E079E08DE390E0A40193010E94AE0660
:100890002150304040405040CA01B90122E030E0D0
:1008A00040E050E00E94AE0620953095409550956E
:1008B00083E0220F331F441F551F8A95D1F760E054
:1008C00074E284EF90E00E94AE06CA01B9012FEFF6
:1008D00030E040E050E00E945A06A40193010E94DB
:1008E000AE06C90181509F4F181619061CF4822FBD
:1008F000815002C081E0821B851500F5E885F985ED
:1009000081E090E00A8802C0880F991F0A94E2F7FC
:10091000808360E079E08DE390E0A40193010E9480
:10092000AE062150304040405040CA01B90122E09B
:1009300030E040E050E00E94AE0604C0E885F98552
:1009400010829501EC81FD813083EE81FF8120834F
:10095000EA85FB85208141E050E0CA010E8402C097
:10096000880F991F0A94E2F7282B2083EA85FB85DC
:100970002081CA010F8402C0880F991F0A94E2F7F0
:10098000282B2083EA85FB858081088802C0440FDC
:10099000551F0A94E2F7842B8083DF91CF911F913A
:1009A0000F91FF90EF90DF90CF90BF90AF909F900E
:1009B0008F907F906F905F900895FC01A085B18526
:1009C00021898C9190E0022E02C0959587950A941A
:1009D000E2F780FFF6CF0484F585E02D608308956B
:1009E00083E291E09093B8018093B70183E391E0B3
:1009F0009093BA018093B90185EC90E09093BC018B
:100A00008093BB0184EC90E09093BE018093BD0184
:100A100080EC90E09093C0018093BF0181EC90E066
:100A20009093C2018093C10186EC90E09093C40141
:100A30008093C30184E08093C50183E08093C60165
:100A400087E08093C70185E08093C80181E08093AF
:100A5000C90108950F931F93CF93DF938C01EB018E
:100A600009C02196D801ED91FC910190F081E02D13
:100A7000C801099568816623A1F7DF91CF911F9185
:100A80000F910895EF92FF920F931F93CF93DF93EF
:100A90008C017B01EA010CC0D7016D917D01D80169
:100AA000ED91FC910190F081E02DC801099521970D
:100AB000209791F7DF91CF911F910F91FF90EF90C9
:100AC0000895DC01ED91FC910280F381E02D099500
:100AD00008950F931F938C01DC01ED91FC9101901F
:100AE000F081E02D6DE00995D801ED91FC91019028
:100AF000F081E02DC8016AE009951F910F910895DA
:100B00000F931F938C010E946105C8010E94690523
:100B10001F910F9108952F923F924F925F926F9283
:100B20007F928F929F92AF92BF92CF92DF92EF927D
:100B3000FF920F931F93DF93CF93CDB7DEB7A097AC
:100B40000FB6F894DEBF0FBECDBF1C016A017B015A
:100B5000411551056105710549F4DC01ED91FC91E8
:100B60000190F081E02D60E3099554C08824992418
:100B70005401422E55246624772401E010E00C0F26
:100B80001D1F080D191DC701B601A30192010E9486
:100B90008C06F80160830894811C911CA11CB11C77
:100BA000C701B601A30192010E948C06C901DA01B6
:100BB0006C017D01C114D104E104F104F1F681E07E
:100BC000E82EF12CEC0EFD1EE80CF91C3E010894F9
:100BD000611C711CD501C4010197A109B1096C0107
:100BE000C818D90814C0F601EE0DFF1D60816A30E7
:100BF00010F4605D01C0695CD101ED91FC91019040
:100C0000F081E02DC10109950894E108F1086E1406
:100C10007F0449F7A0960FB6F894DEBF0FBECDBF94
:100C2000CF91DF911F910F91FF90EF90DF90CF90C8
:100C3000BF90AF909F908F907F906F905F904F90FC
:100C40003F902F900895EF92FF920F931F93CF93B1
:100C5000DF93EC017A018B0177FF0FC0E881F98106
:100C60000190F081E02D6DE2099510950095F094CA
:100C7000E094E11CF11C011D111DCE01B801A7017A
:100C80002AE00E948B05DF91CF911F910F91FF9079
:100C9000EF9008950F931F938C01AB01662757FDCA
:100CA0006095762F0E942306C8010E9469051F9156
:100CB0000F910895629FD001739FF001829FE00D14
:100CC000F11D649FE00DF11D929FF00D839FF00DCB
:100CD000749FF00D659FF00D9927729FB00DE11D77
:100CE000F91F639FB00DE11DF91FBD01CF01112454
:100CF000089597FB092E07260AD077FD04D049D026
:100D000006D000201AF4709561957F4F0895F6F78C
:100D1000909581959F4F0895A1E21A2EAA1BBB1BA7
:100D2000FD010DC0AA1FBB1FEE1FFF1FA217B307B7
:100D3000E407F50720F0A21BB30BE40BF50B661FCD
:100D4000771F881F991F1A9469F760957095809591
:100D500090959B01AC01BD01CF01089597FB092E31
:100D600005260ED057FD04D0D7DF0AD0001C38F47A
:100D700050954095309521953F4F4F4F5F4F0895C7
:100D8000F6F790958095709561957F4F8F4F9F4FA7
:100D90000895AA1BBB1B51E107C0AA1FBB1FA617C2
:100DA000B70710F0A61BB70B881F991F5A95A9F714
:100DB00080959095BC01CD010895EE0FFF1F059021
:0A0DC000F491E02D0994F894FFCFA0
:100DCA002D2D2D2D2D004B65792052656369657691
:100DDA0065643A20000B000D000100E80390010051
:0A0DEA00000000DD042A05420500A8
:00000001FF
