:100000000C9405010C9430010C9430010C943001D7
:100010000C9430010C9430010C9430010C9430019C
:100020000C9430010C9430010C9430010C9430018C
:100030000C9430010C9430010C9430010C9430017C
:100040000C9430010C941B050C9430010C9430017D
:100050000C9430010C9430010C9430010C941A1B58
:100060000C9430010C941E1E0C9430010C94300141
:100070000C9430010C9430010C9430010C9430013C
:100080000C94ED040C9430010C9430010C9430016C
:100090000C945F1E0C9430010C9430010C943001D0
:1000A0000C9430010C9430010C94BF040C9430017A
:1000B0000C9430010C9430010C9430010C94910498
:1000C0000C9430010C9430010C9430010C94A01E5F
:1000D0000C9430010C9430010C94E11E0C9430010E
:1000E0000C94300100002100240027002A002D007C
:1000F0003000330001010000040107010A01000083
:100100002200250028002B002E00310034000201BF
:100110000000050108010B0100002000230026005B
:1001200029002C002F00320000010000030106010D
:10013000090105050505070508080808020202026D
:100140000A0A080804040404010101010101010173
:100150000303030303030303040707070C0C0C0C3E
:100160000C0C0C0C02020202060606060606060627
:100170000B0B0B0B0B0B0B0B0102102020080810B4
:100180002040102040800201020108040201010207
:1001900004081020408080402010080402018004E0
:1001A000020180402010080402010804020101023B
:1001B0000408102040800102040810204080000044
:1001C000090A02080B0C0D070603040100000000D9
:1001D000000000000000000000000000000000001F
:1001E00000000000000000000000100F0E000000E2
:1001F00000000000000000000000000000000000FF
:1002000000000000790EAC20720E11241FBECFEF4B
:10021000D1E2DEBFCDBF14E0A0E0B2E0EEE6F7E44D
:1002200000E00BBF02C007900D92AA34B107D9F7C6
:100230001BBE17E0AAE4B4E001C01D92AF39B107BC
:10024000E1F712E0C8E0D2E004C02297FE010E946C
:10025000A623C430D107C9F70E94131B0C94AA230C
:100260000C940000CF93DF93BC018230910510F411
:1002700062E070E0A0919D07B0919E07ED01E0E083
:10028000F0E040E050E021C088819981861797070F
:1002900069F48A819B81309719F09383828304C02B
:1002A00090939E0780939D07FE0134C068177907DD
:1002B00038F44115510519F08417950708F4AC017D
:1002C000FE018A819B819C01E9012097E9F6411595
:1002D0005105A9F1CA01861B970B049708F4BA01CE
:1002E000E0E0F0E02AC08D919C911197841795076A
:1002F000F9F46417750781F412968D919C91139708
:10030000309719F09383828304C090939E07809363
:100310009D07FD0132964CC0CA01861B970BFD015B
:10032000E80FF91F6193719302978D939C9340C0DE
:10033000FD01828193819C01D9011097A1F68091E2
:100340009B0790919C07892B41F480912104909107
:10035000220490939C0780939B0740912304509123
:1003600024044115510541F44DB75EB780911F0437
:1003700090912004481B590B20919B0730919C07BA
:10038000CA01821B930B8617970780F0AB014E5F63
:100390005F4F8417950750F0420F531F50939C07EF
:1003A00040939B07F9016193719302C0E0E0F0E094
:1003B000CF01DF91CF910895CF93DF93009709F498
:1003C00050C0EC0122971B821A82A0919D07B09128
:1003D0009E07109709F140E050E0AC17BD0708F107
:1003E000BB83AA83FE0121913191E20FF31FAE1767
:1003F000BF0779F48D919C911197280F391F2E5FBB
:100400003F4F3983288312968D919C9113979B833C
:100410008A834115510571F4D0939E07C0939D07BF
:1004200020C012968D919C911397AD01009711F009
:10043000DC01D3CFFA01D383C28321913191E20F42
:10044000F31FCE17DF0769F488819981280F391FC0
:100450002E5F3F4FFA01318320838A819B819383F2
:100460008283DF91CF910895FB01DC018D91019092
:1004700080190110D9F3990B0895FB01DC0141505B
:10048000504048F001900D920020C9F701C01D9224
:1004900041505040E0F70895FC0180914A048033B8
:1004A00090F480838F5F80934A04815090E0FC0138
:1004B000EE0FFF1FE80FF91FE55BFB4F88EB9BE09A
:1004C0009283818308958FEF80830895FC0180815A
:1004D00090E0FC01EE0FFF1FE80FF91FE55BFB4FFB
:1004E00080818F7B80830895FC0120812033C0F5BB
:1004F0008181992787FD909548E850E0481B590B6A
:10050000440F551F440F551F6417750784F08281EF
:10051000992787FD909548E552E0481B590B440FF9
:10052000551F440F551F641775070CF4AB01CA0122
:10053000AA2797FDA095BA2F0697A109B109880FA0
:10054000991FAA1FBB1F4FB7F89430E0F901EE0FB7
:10055000FF1FE20FF31FE55BFB4F928381834FBFC9
:100560000895AF92BF92CF92DF92EF92FF920F93D6
:100570001F93CF93DF93EC019B0182E060327807F9
:100580000CF048C077FF03C020E030E005C0653BB9
:10059000710514F024EB30E000D000D0B9018827B9
:1005A00077FD8095982F2981332727FD3095B8E86E
:1005B000AB2EB12CA21AB30AAA0CBB1CAA0CBB1CF2
:1005C000CC24B7FCC094DC2CEA81FF27E7FDF09532
:1005D00028E532E02E1B3F0B220F331F220F331F63
:1005E000442737FD4095542FEDB7FEB72183328362
:1005F0004383548320E030E040E050E0E4EBEE2E13
:10060000F12C012D112D0E94CC229B010F900F90F7
:100610000F900F90CE01B9010E947402DF91CF912B
:100620001F910F91FF90EF90DF90CF90BF90AF9010
:100630000895CF92DF92EF92FF921F93CF93DF93B3
:10064000EC01162F7A0169018881803308F093C08C
:10065000862F61E00E94E71C888190E0FC01EE0F8C
:10066000FF1FE80FF91FE55BFB4F1F738081807C44
:10067000812B808380E292E08E199F0964E070E014
:100680000E944023698380E699E08C199D0964E00B
:1006900070E00E9440236A83A8818A2F6CE00E9448
:1006A0003423682F70E0AB01440F551F460F571FCE
:1006B000440F551F440F551F20E030E0C901840F3F
:1006C000951FFC01EE0FFF1FE80FF91FE55BFB4FC5
:1006D000808186FD44C02F5F3F4F2C30310571F77C
:1006E00053C01092800082E08093810010928500B8
:1006F00010928400B19A80916F00826080936F00A5
:100700002EC06230710569F41092900082E08093EF
:100710009100109295001092940088BB8093710014
:100720001EC06330710569F41092A00082E08093CE
:10073000A1001092A5001092A40089BB80937200C2
:100740000EC0672B61F41092200182E0809321019A
:1007500010922501109224018ABB809373008A2F86
:1007600090E0FC01EE0FFF1FE80FF91FE55BFB4F68
:100770008081806480838881DF91CF911F91FF9079
:10078000EF90DF90CF9008956130710509F0B9CFF7
:10079000A8CF40E252E020E639E00E941903089514
:1007A000EF92FF920F931F93CF93DF938B017A0108
:1007B000EC01DC01A552BB4F8C9187FF04C0FB010B
:1007C0001182108237C0AE01440F551F4C0F5D1FC0
:1007D000440F551F440F551F2C91332727FD30958B
:1007E000240F351F80914A0490E02817390714F52B
:1007F0008C91992787FD9095840F951FFC01EE0F32
:10080000FF1FE80FF91FE55BFB4F808186FF12C0D9
:100810008C91992787FD9095840F951FFC01EE0F11
:10082000FF1FE80FF91FE55BFB4F80818F7360E0CE
:100830000E94071DDE01A552BB4F8C918F5F8C93E8
:10084000AE01440F551F4C0F5D1F440F551F440F41
:10085000551F2C91332727FD3095240F351F80918C
:100860004A0490E0281739070CF04DC08C918C3069
:100870000CF049C0F801208131818C91992787FDC6
:100880009095840F951FFC01EE0FFF1FE80FF91FD5
:10089000E55BFB4F81819281280F391FF70131837E
:1008A00020838C91992787FD9095840F951FFC01DB
:1008B000EE0FFF1FE80FF91FE55BFB4F808186FFFE
:1008C00029C08C91992787FD9095840F951FFC0175
:1008D000EE0FFF1FE80FF91FE55BFB4F80818F7361
:1008E00061E00E94071D16C080E49CE904C0F80185
:1008F000808191810496F70191838083C552DB4FFB
:100900008FEF888307C0F8018081918184549C49CE
:1009100058F3EDCFDF91CF911F910F91FF90EF90A2
:1009200008951F920F920FB60F920BB60F921124DB
:100930002F933F934F935F936F937F938F939F93E7
:10094000AF93BF93EF93FF9380E090E064E271E098
:1009500048E251E00E94D003FF91EF91BF91AF9127
:100960009F918F917F916F915F914F913F912F91C7
:100970000F900BBE0F900FBE0F901F9018951F92F7
:100980000F920FB60F920BB60F9211242F933F9335
:100990004F935F936F937F938F939F93AF93BF9387
:1009A000EF93FF9383E090E064EA70E048EA50E060
:1009B0000E94D003FF91EF91BF91AF919F918F91D2
:1009C0007F916F915F914F913F912F910F900BBE4F
:1009D0000F900FBE0F901F9018951F920F920FB699
:1009E0000F920BB60F9211242F933F934F935F9367
:1009F0006F937F938F939F93AF93BF93EF93FF93E7
:100A000082E090E064E970E048E950E00E94D003A1
:100A1000FF91EF91BF91AF919F918F917F916F91D6
:100A20005F914F913F912F910F900BBE0F900FBE92
:100A30000F901F9018951F920F920FB60F920BB642
:100A40000F9211242F933F934F935F936F937F9354
:100A50008F939F93AF93BF93EF93FF9381E090E0C9
:100A600064E870E048E850E00E94D003FF91EF9105
:100A7000BF91AF919F918F917F916F915F914F91B6
:100A80003F912F910F900BBE0F900FBE0F901F90B4
:100A90001895F999FECF72BD61BDF89A80B5089599
:100AA000F999FECF1FBA72BD61BD40BD0FB6F89473
:100AB000FA9AF99A0FBE0895FC01808191810E94F3
:100AC000DC010895FC01DB012281338112968D91B6
:100AD0009C9113972817390710F480E00895281B7C
:100AE000390B808191816D917C91820F931F0E94BF
:100AF00034029C0180E0232B09F481E008950F93D8
:100B00001F93CF93DF93EC018B01CB0101960E94E1
:100B10003201888399831D830C831B821A8220E013
:100B200030E007C0E881F981E20FF31F10822F5FE8
:100B30003F4F8C819D8128173907A0F3DF91CF911A
:100B40001F910F9108950F931F938C01FB0101904A
:100B50000020E9F73197E61BF70BDC011396FC93B5
:100B6000EE93129731968D919C91AF010E943D02B8
:100B7000D801ED91FC91119712968D919C9113974C
:100B8000E80FF91F10821F910F910895FF920F93A4
:100B90001F93CF93DF93EC01F62E2A813B818C814A
:100BA0009D8128173907A1F408811981C90101968F
:100BB000880F991F9D838C8301960E943201888340
:100BC0009983CE01B8010E94A305C8010E94DC01EF
:100BD0008A819B81E881F981E80FF91FF0820196F3
:100BE0009B838A83E881F981E80FF91F1082CE0187
:100BF000DF91CF911F910F91FF9008950E94C6053C
:100C000008950F931F93CF93DF93EC018B01611530
:100C1000710511F400E012E0D8010D900020E9F711
:100C20001197A01BB10BBB83AA838C819D818A176E
:100C30009B0768F4BD83AC83888199810E94DC01A5
:100C40008A819B8101960E9432018883998320E0EA
:100C500030E007C0E881F981E20FF31F10822F5FB7
:100C60003F4F8C819D8128173907A0F3CE01B80131
:100C70000E94A305CE01DF91CF911F910F9108959E
:100C80000F931F93CF93DF93EC018B0161157105D7
:100C900011F400E012E0F80101900020E9F731972B
:100CA000E01BF10BFB83EA833196FD83EC83CF01DC
:100CB0000E94320188839983CE01B8010E94A30566
:100CC000DF91CF911F910F910895FC018AE294E08A
:100CD000918380836283089520E0FC0182818F3FAD
:100CE00009F021E0822F0895FC0182818F3F11F4E9
:100CF00080E008950E94950C0895EF92FF920F9363
:100D00001F93CF93DF93EC018A818F3F89F10E947B
:100D1000F2080E94621B7B018C01CE010E947406C6
:100D2000882301F10E94621B6E197F09800B910BD1
:100D3000685E734080409040A8F461E070E080E01D
:100D400090E00E94701BE9CF8A810E942109EA810C
:100D5000F0E0EE0FFF1FE052FB4F118210828FEF89
:100D60008A8306C0CE010E947406882381F3ECCFEB
:100D7000DF91CF911F910F91FF90EF900895FC01AB
:100D800082818F3F19F420E030E003C00E94DF0C25
:100D90009C01C9010895CF93DF93EC018A818F3FB5
:100DA00011F480E015C0CE010E947406843171F008
:100DB000882361F0883151F08C3131F4CE010E94EA
:100DC000BF0620E0892B19F021E001C020E0822F2E
:100DD000DF91CF9108950F931F93DF93CF930F92DD
:100DE000CDB7DEB78C010E94BF06892B19F42FEF17
:100DF0003FEF0CC0F8018281BE016F5F7F4F41E081
:100E000050E00E94A4098981282F30E0C9010F9089
:100E1000CF91DF911F910F910895FC0182818F3F47
:100E200011F00E94C8090895DF93CF930F92CDB7B8
:100E3000DEB76983FC0182818F3F39F0BE016F5FAD
:100E40007F4F41E050E00E94C8090F90CF91DF91A1
:100E50000895FC0182818F3F51F0DB010D9000204D
:100E6000E9F71197A61BB70BAD010E94C8090895B9
:100E7000AF92BF92CF92DF92EF92FF920F931F93A8
:100E80007B016A0159010E940D0C85E565E50E9410
:100E9000D80AC7010E944D0CC6010E94770CC501FB
:100EA0000E94110CC8010E942F0C1F910F91FF90FE
:100EB000EF90DF90CF90BF90AF900895FC0184E356
:100EC00094E091838083738362830895DF93CF934B
:100ED0000F92CDB7DEB7FC016983A081B181149672
:100EE0002D913C911597BE016F5F7F4F41E050E01F
:100EF000F90109950F90CF91DF910895CF93DF937A
:100F0000DB010D900020E9F71197A61BB70BEC0150
:100F1000E881F9810480F581E02DAD010995DF912B
:100F2000CF910895CF92DF92EF92FF920F931F938C
:100F3000DF93CF93CDB7DEB727970FB6F894DEBF18
:100F40000FBECDBF6C0100E010E07E010894E11CF3
:100F5000F11CC701602F0E946506C7010E9474063C
:100F60008823B1F4F60142815381802F61E020E0B3
:100F70000E944009802F0E940509000F111F005296
:100F80001B4FF60182819381F8019183808305C014
:100F90000F5F1F4F04301105E1F627960FB6F89446
:100FA000DEBF0FBECDBFCF91DF911F910F91FF909C
:100FB000EF90DF90CF9008958F929F92AF92BF9263
:100FC000DF92EF92FF920F931F93DF93CF93CDB7F2
:100FD000DEB727970FB6F894DEBF0FBECDBF4C012A
:100FE00000EE14E0AA24BB24DD247E010894E11C59
:100FF000F11CC7016D2D0E946506F8012081318129
:10100000F4018281938128173907B1F4C7010E9446
:101010007406843121F491E0A92EB12C0DC0C701D2
:101020000E9474068C3141F4C7010E94BF06892BCF
:1010300019F4C7010E947D06D3940E5F1F4FF4E0A0
:10104000DF16B9F6AB2819F4C4010E94920727965F
:101050000FB6F894DEBF0FBECDBFCF91DF911F91C9
:101060000F91FF90EF90DF90BF90AF909F908F9087
:1010700008956F927F928F929F92AF92BF92CF927C
:10108000DF92FF920F931F93DF93CF93CDB7DEB71D
:1010900027970FB6F894DEBF0FBECDBF5C013B01B2
:1010A0004A010E94DC0700EE14E0FF246E01089460
:1010B000C11CD11CC6016F2D0E946506F80120815C
:1010C0003181F501828193812817390751F4C601D6
:1010D0000E947406873129F4C601B301A4010E945D
:1010E0000D07F3940E5F1F4FF4E0FF1619F72796D4
:1010F0000FB6F894DEBF0FBECDBFCF91DF911F9129
:101100000F91FF90DF90CF90BF90AF909F908F9006
:101110007F906F9008959F92AF92BF92CF92DF928F
:10112000EF92FF920F931F93DF93CF93CDB7DEB76C
:1011300027970FB6F894DEBF0FBECDBFE82E992ECD
:101140005B01CB010E94DC0700EE14E0FF246E017E
:101150000894C11CD11CC6016F2D0E946506F801C0
:1011600020813181F5018281938128173907D9F4D3
:10117000C6010E9474068731B1F4C6010E94BF0601
:10118000892B89F0EE2DF92D8AE294E091838083FA
:101190008B8182838C819D81948383838E819F81C7
:1011A000968385830BC0F3940E5F1F4FF4E0FF1608
:1011B00091F68E2D992D6FEF0E9465068E2D992D3B
:1011C00027960FB6F894DEBF0FBECDBFCF91DF914B
:1011D0001F910F91FF90EF90DF90CF90BF90AF9055
:1011E0009F900895CF93DF9390E0D82FCC27CF5FC7
:1011F000DB4FCE0168E00E94410ACE010E94600AE6
:101200008823D9F7DF91CF910895CF93DF9390E0B2
:101210000496D82FCC27CE0103960E94600A833112
:1012200011F080E00BC02196CE0162E00E94410ADD
:10123000CE010E94600A8823D9F781E0DF91CF9127
:1012400008950F931F93CF93DF93082F10E00C5F47
:101250001F4FD02FCC272196CE0160E10E94410A7A
:10126000CE010E94600A8823D9F7902F8827029622
:101270006FEF0E94410ADF91CF911F910F91089566
:10128000CF92DF92EF92FF920F931F93CF93DF9352
:10129000082FE62EEA01F22E862F8150853010F0BD
:1012A00080E049C0802F0E94210910E00C5F1F4F91
:1012B000D02ECC24FE28C6016F2D0E94410AB6E034
:1012C000000F111FBA95E1F7209771F00F5F1F4FC4
:1012D000000F111F000F111FC8016D2F0E94410A3E
:1012E000C80101966C2F18C02091E9043091EA04DE
:1012F0002F5F3F4F3093EA042093E9040F5F1F4FA5
:10130000000F111F000F111FC801632F0E94410A17
:10131000C80101966091E9040E94410A86010F5FAD
:101320001F4FC80161E00E94410AC8010E94600A83
:101330008823D9F781E0DF91CF911F910F91FF9022
:10134000EF90DF90CF900895FF920F931F93CF936C
:10135000DF93F82E8A014115510519F440E050E061
:1013600010C00E94FC0DDF2DC0E0CF5FDB4FCE012F
:1013700060E40E94410ACE010E94600A8823D9F7E6
:10138000A801CA01DF91CF911F910F91FF9008959D
:101390006F927F928F929F92BF92CF92DF92EF9245
:1013A000FF920F931F93CF93DF93B82E3B01EA0177
:1013B0000E94380A8C179D0710F08E0104C08B2DF7
:1013C0000E94380A8C01EB2CFF2484E090E0E80EA8
:1013D000F91EDE2CCC2453E0852E912C8C0C9D1C08
:1013E0008B2D0E949D0CEC01C4010E94600A873184
:1013F00029F08C3119F000E010E003C0C017D107CC
:1014000078F38B2DB301A8010E946D0DE6012196A2
:10141000CE0160E20E94410ACE010E94600A882348
:10142000D9F70BC0C4010E94600A882349F48B2DB0
:101430000E94210900E010E00CC0DE2DCC2722968E
:10144000CE010E94600A84FFEDCFCE0160E10E94D0
:10145000410AC801DF91CF911F910F91FF90EF904A
:10146000DF90CF90BF909F908F907F906F90089566
:10147000E82FF0E0EE0FFF1FE550FB4F80819181D8
:101480000895282F84B1876084B9289A85B1897F0F
:1014900085B980E58CBD289880EF8EBD0DB407FE20
:1014A000FDCF9EBD0DB407FEFDCF2EBD0DB407FED2
:1014B000FDCF6EBD0DB407FEFDCF289A81E00895E3
:1014C000282F84B1876084B9289A85B1897F85B92E
:1014D00080E58CBD28988FE08EBD0DB407FEFDCF52
:1014E0009EBD0DB407FEFDCF2EBD0DB407FEFDCF92
:1014F0001EBC0DB407FEFDCF8EB5289A0895DC0101
:1015000084B1876084B9289A85B1897F85B980E5DF
:101510008CBD20E030E090EF19C028989EBD0DB43E
:1015200007FEFDCFBEBD0DB407FEFDCFAEBD0DB4B1
:1015300007FEFDCFFB01E20FF31F80818EBD0DB4CE
:1015400007FEFDCF289A2F5F3F4F119624173507CE
:1015500020F3CA010895DC0184B1876084B9289A18
:1015600085B1897F85B980E58CBD20E030E09FE0C2
:101570001AC028989EBD0DB407FEFDCFBEBD0DB4A8
:1015800007FEFDCFAEBD0DB407FEFDCF1EBC0DB4F2
:1015900007FEFDCF8EB5FB01E20FF31F8083289A73
:1015A0002F5F3F4F11962417350718F3CA0108958E
:1015B0002F923F924F925F926F927F928F929F9263
:1015C000AF92BF92CF92DF92EF92FF920F931F9351
:1015D000DF93CF9300D000D0CDB7DEB7182F062F02
:1015E0008BE190E0612F0E94410A8AE190E0602F38
:1015F0000E94410A80E090E490930C0580930B05D3
:1016000080E090E690931405809313056BEF74E0EF
:1016100083E095E09C838B83F3EFCF2EF4E0DF2E05
:10162000EBEEEE2EE4E0FE2EAA24BB246624772403
:101630008824992440E050E0E12FF0E0FA83E98328
:10164000202E3324FB0111821082EB81FC81118258
:101650001082F0E06F16F0E27F06DCF589819A8156
:10166000042E02C0959587950A94E2F783709070D6
:1016700081309105A1F0823091051CF4892B39F05D
:1016800028C08230910599F0039719F518C080E0C1
:1016900094E0FB01918380838FEF93E017C080E09B
:1016A00098E0FB01918380838FEF97E00FC080E08B
:1016B00090E1FB01918380838FEF9FE007C080E082
:1016C00090E2FB01918380838FEF9FE1F70191838B
:1016D000808390E0891690E299060CF03EC0C1012B
:1016E000042E02C0959587950A94E2F78370907056
:1016F00081309105A9F0823091051CF4892B39F0D5
:101700002CC082309105A9F0039739F51BC080E009
:1017100094E0EB81FC81918380838FEF93E01AC08A
:1017200080E098E0EB81FC81918380838FEF97E0EC
:1017300011C080E090E1EB81FC81918380838FEF89
:101740009FE008C080E090E2EB81FC819183808380
:101750008FEF9FE1F60191838083FB0140805180F0
:10176000EB81FC8100811181A114B104F1F0FA0137
:10177000E55FFA4FDA01A750BB4F8D919C913291F2
:1017800022913296820F931F91838083FA01ED5E3E
:10179000FA4FDA01AF5FBA4F8D919C91329122914D
:1017A0003296820F931F918380830894A11CB11CF1
:1017B0006E5F7F4F4E5F5F4F8B819C8102969C8353
:1017C0008B83E2E0F0E0CE0EDF1EEE0EFF1EF4E0B3
:1017D000AF16B10429F0640C751C800E911E32CF37
:1017E0000F900F900F900F90CF91DF911F910F915D
:1017F000FF90EF90DF90CF90BF90AF909F908F9031
:101800007F906F905F904F903F902F900895682F3A
:1018100080E090E80E94410A089580E80E94070C49
:1018200008950F931F938C0181E090E0F80160818F
:101830000E94410A82E090E0F80161810E94410A21
:1018400083E090E0F80162810E94410A84E090E028
:10185000F80163810E94410A1F910F9108950F932F
:101860001F938C0185E090E0F80160810E94410A9D
:1018700086E090E0F80161810E94410A87E090E0F3
:10188000F80162810E94410A88E090E0F8016381DA
:101890000E94410A1F910F9108950F931F938C018D
:1018A00089E090E0F80160810E94410A8AE090E0BE
:1018B000F80161810E94410A8BE090E0F8016281A9
:1018C0000E94410A8CE090E0F80163810E94410A85
:1018D0008DE090E0F80164810E94410A8EE090E082
:1018E000F80165810E94410A1F910F9108950F939D
:1018F0001F938C018FE090E0F80160810E94410A03
:1019000080E190E0F80161810E94410A81E190E06C
:10191000F80162810E94410A82E190E0F80163814E
:101920000E94410A1F910F91089590E0982F8827F7
:101930008D5F9B4F0E94600A08958F929F92AF9295
:10194000BF92CF92DF92EF92FF920F931F93CF93AC
:10195000DF9390E0982F8827805E9B4F4C015C01BD
:101960000894A11CB11CC0E0D0E0C4010E94600A30
:10197000F82EEE24C5010E94600A6701C80ED11C32
:10198000C114D10459F0C4010E94600A182F00E06C
:10199000C5010E94600AE801C80FD11DCC15DD0504
:1019A00021F7CE01DF91CF911F910F91FF90EF9022
:1019B000DF90CF90BF90AF909F908F9008958F92BF
:1019C0009F92AF92BF92CF92DF92EF92FF920F93CE
:1019D0001F93CF93DF9390E00496982F882716E209
:1019E000812E912C880E991EB7E2AB2EB12CA80E39
:1019F000B91EC0E0D0E0C4010E94600AF82EEE24B7
:101A0000C5010E94600A6701C80ED11CC114D1042F
:101A100059F0C4010E94600A182F00E0C5010E941D
:101A2000600AE801C80FD11DCC15DD0521F7CE01F4
:101A3000DF91CF911F910F91FF90EF90DF90CF90AA
:101A4000BF90AF909F908F900895CF92DF92EF92CA
:101A5000FF920F931F93CF93DF937B01E901E82F50
:101A6000F0E0EE0FFF1FDF01A551BB4F8D919C9160
:101A7000482359238BE0C82E85E0D82ECE0EDF1EDA
:101A8000D6012D913C91240F351FE550FB4F01905D
:101A9000F081E02DCA018C0F9D1FE817F90780F433
:101AA0008F01041B150BC901A8010E947F0AC01BEE
:101AB000D10BF601808191810E0D1F1DB80101C06F
:101AC000C901AE010E947F0ADF91CF911F910F9152
:101AD000FF90EF90DF90CF9008957F928F929F922A
:101AE000AF92BF92CF92DF92EF92FF920F931F932C
:101AF000782E4B015A01E82EFF2484E090E0E80E96
:101B0000F91EFE2CEE2424E2C22ED12CCE0CDF1CBA
:101B1000C6010E94600A182F00E085E290E0E80EFE
:101B2000F91EC7010E94600A080F111D872DB4011C
:101B3000A80195010E94250D0A0D1B1DC601612FEC
:101B40000E94410AC701602F0E94410A1F910F9114
:101B5000FF90EF90DF90CF90BF90AF909F908F90CD
:101B60007F900895CF92DF92EF92FF920F931F9391
:101B7000CF93DF937A01E901E82FF0E0EE0FFF1F2A
:101B8000DF01AD50BB4F8D919C916823792343E1D8
:101B9000C42E45E0D42ECE0EDF1ED6012D913C91F1
:101BA000260F371FED5FFA4F0190F081E02DCE0137
:101BB000860F971FE817F90788F48F01061B170B8C
:101BC000C901B701A8010E94AB0AC01BD10BF601E5
:101BD000808191810E0D1F1DB80102C0C901B7019E
:101BE000AE010E94AB0ADF91CF911F910F91FF9040
:101BF000EF90DF90CF9008957F928F929F92AF9257
:101C0000BF92CF92DF92EF92FF920F931F93782EA5
:101C10004B015A01E82EFF2484E090E0E80EF91E03
:101C2000FE2CEE2468E2C62ED12CCE0CDF1CC601A1
:101C30000E94600A182F00E089E290E0E80EF91E89
:101C4000C7010E94600A080F111D872DB801A40169
:101C500095010E94B20D0A0D1B1DC601612F0E9445
:101C6000410AC701602F0E94410A1F910F91FF9006
:101C7000EF90DF90CF90BF90AF909F908F907F902C
:101C800008958130910501F56F5F7F4F51F58BE12C
:101C900095E068EB72E20E945E078FE195E060E0FC
:101CA00071E00E947F0585E295E060E570E00E94AA
:101CB0005E0789E295E00E944C028CE295E065E6C1
:101CC00070E00E947F050895892B59F46F5F7F4F64
:101CD00041F48CE295E00E945C058FE195E00E9462
:101CE0005C05089580E090E06FEF7FEF0E94410E69
:101CF000089581E090E06FEF7FEF0E94410E08951C
:101D00000F931F93182F092F65E072E00E94C321E3
:101D100060912C0570912D05812F902F0E94E2215A
:101D20001F910F910895CF93DF938FE497E069E0BF
:101D300072E00E94C3218FE497E064E172E00E94A8
:101D4000E2218FE497E06EE172E00E94C3218FED03
:101D500094E060E070E00E944905482F50E060E0A8
:101D600070E08FE497E02AE030E00E94C1228FE427
:101D700097E06AE272E00E94C321C4E6D0E08FEDF2
:101D800094E0BE010E944905482F50E060E070E0F9
:101D90008FE497E02AE030E00E94AC228FE497E0E5
:101DA0006EE20E94BB212196C836D10541F78FE42F
:101DB00097E00E94CB218FE497E063E372E00E94FA
:101DC000C321C8E6D0E08FED94E0BE010E94490532
:101DD000482F50E060E070E08FE497E02AE030E0C8
:101DE0000E94AC228FE497E06EE20E94BB21219614
:101DF000CC36D10541F78FE497E00E94CB218FE4E8
:101E000097E067E372E00E94C321CCE6D0E08FED5B
:101E100094E0BE010E944905482F50E060E070E068
:101E20008FE497E02AE030E00E94AC228FE497E054
:101E30006EE20E94BB212196C037D10541F78FE4A5
:101E400097E00E94CB218FE497E06FE372E00E945D
:101E5000C321C0E7D0E08FED94E0BE010E944905A8
:101E6000482F50E060E070E08FE497E02AE030E037
:101E70000E94AC228FE497E06EE20E94BB21219683
:101E8000C637D10541F78FE497E06CE70E94BB218C
:101E9000DF91CF9108950F931F93CF93DF93182F66
:101EA000092F64E472E00E94C321812F902F69E022
:101EB00072E00E94C321812F902F64E172E00E94A2
:101EC000C321812F902F6EE172E00E94C3218FED1C
:101ED00094E060E070E00E944905482F50E060E027
:101EE00070E0812F902F2AE030E00E94AC22812FF9
:101EF000902F6AE272E00E94C321C4E6D0E08FED29
:101F000094E0BE010E944905482F50E060E070E077
:101F1000812F902F2AE030E00E94AC22812F902F59
:101F20006EE20E94BB212196C836D10541F7812F70
:101F3000902F63E372E00E94C321C8E6D0E08FEDEA
:101F400094E0BE010E944905482F50E060E070E037
:101F5000812F902F2AE030E00E94AC22812F902F19
:101F60006EE20E94BB212196CC36D10541F7812F2C
:101F7000902F67E372E00E94C321CCE6D0E08FEDA2
:101F800094E0BE010E944905482F50E060E070E0F7
:101F9000812F902F2AE030E00E94AC22812F902FD9
:101FA0006EE20E94BB212196C037D10541F7812FF7
:101FB000902F6FE372E00E94C321C0E7D0E08FED65
:101FC00094E0BE010E944905482F50E060E070E0B7
:101FD000812F902F2AE030E00E94AC22812F902F99
:101FE0006EE20E94BB212196C637D10541F7812FB1
:101FF000902F0E94CB21DF91CF911F910F910895D7
:10200000EF92FF920F931F93DF93CF9300D000D0F6
:1020100000D0CDB7DEB7FE01319696E0DF011D920C
:102020009A95E9F789836A834B832C830D83EE822B
:102030007F0101E010E08FED94E0B801F7014191DC
:102040007F010E9450050F5F1F4F0730110599F760
:1020500026960FB6F894DEBF0FBECDBFCF91DF91AD
:102060001F910F91FF90EF900895482F8FED94E00E
:1020700060E070E00E9450050895EF92FF920F9388
:102080001F93DF93CF9300D000D000D0CDB7DEB741
:10209000FE01319696E0DF011D929A95E9F789835A
:1020A0006A834B832C830D83EE827F0100E710E06F
:1020B0008FED94E0B801F70141917F010E94500536
:1020C0000F5F1F4F0637110599F726960FB6F89444
:1020D000DEBF0FBECDBFCF91DF911F910F91FF905B
:1020E000EF900895EF92FF920F931F93DF93CF939A
:1020F00000D000D0CDB7DEB789836A834B832C83B1
:102100007E010894E11CF11C0CE610E08FED94E0D8
:10211000B801F70141917F010E9450050F5F1F4FE9
:102120000037110599F70F900F900F900F90CF91F6
:10213000DF911F910F91FF90EF900895EF92FF9222
:102140000F931F93DF93CF9300D000D0CDB7DEB7AE
:1021500089836A834B832C837E010894E11CF11CE4
:1021600008E610E08FED94E0B801F70141917F019E
:102170000E9450050F5F1F4F0C36110599F70F9005
:102180000F900F900F90CF91DF911F910F91FF90C3
:10219000EF900895EF92FF920F931F93DF93CF93E9
:1021A00000D000D0CDB7DEB789836A834B832C8300
:1021B0007E010894E11CF11C04E610E08FED94E030
:1021C000B801F70141917F010E9450050F5F1F4F39
:1021D0000836110599F70F900F900F900F90CF913F
:1021E000DF911F910F91FF90EF900895CF92DF92B2
:1021F000EF92FF920F931F938FE497E00E941B20B2
:10220000873009F0F5C08FE497E00E942F208823E3
:10221000F1F48FE497E00E942F20F82E8FE497E0EE
:102220000E942F20082F8FE497E00E942F20182F64
:102230008FE497E00E942F20282F8F2D602F412FB1
:102240000E94CA108FE497E069E472E01FC08130F9
:1022500001F58FE497E00E942F20F82E8FE497E09D
:102260000E942F20082F8FE497E00E942F20182F24
:102270008FE497E00E942F20282F8F2D602F412F71
:102280000E949E108FE497E068E572E00E94C321EF
:10229000ABC08230F1F48FE497E00E942F20F82E3B
:1022A0008FE497E00E942F20082F8FE497E00E9490
:1022B0002F20182F8FE497E00E942F20282F8F2D9A
:1022C000602F412F0E9472108FE497E062E672E067
:1022D000DDCF833049F58FE497E00E942F20C82E90
:1022E0008FE497E00E942F20D82E8FE497E00E9481
:1022F0002F20F82E8FE497E00E942F20182F8FE4D4
:1023000097E00E942F20082F8FE497E00E942F2053
:10231000E82E8C2D6D2D4F2D212F0E943D108FE426
:1023200097E060E772E0B2CF843059F48FE497E031
:102330000E942F200E9435108FE497E06BE772E037
:10234000A5CF853049F58FE497E00E942F20C82E55
:102350008FE497E00E942F20D82E8FE497E00E9410
:102360002F20F82E8FE497E00E942F20182F8FE463
:1023700097E00E942F20082F8FE497E00E942F20E3
:10238000E82E8C2D6D2D4F2D212F0E9400108FE4F3
:1023900097E065E872E07ACF863011F58FE497E038
:1023A00060E972E00E94C32101E010E08FED94E04B
:1023B000B8010E944905482F50E060E070E08FE4CA
:1023C00097E02AE030E00E94AC220F5F1F4F0730F9
:1023D000110561F78FE497E06CE70E94BB2104C010
:1023E000873011F40E94930E8FE497E00E945720EB
:1023F0001F910F91FF90EF90DF90CF900895EF9293
:10240000FF920F931F93182FF92E80EC68EA40E09B
:1024100021E00E94CA1080EC68EA40E021EB0E94B3
:102420009E108FEF6FEF4FEF20E00E9472108EED45
:102430006DEA4EEB2FEE0EEF3DEEE32E0E943D10C7
:1024400081E062E043E024E005E096E0E92E0E94AE
:102450000010812F9F2D65E972E00E94C321812F1A
:102460009F2D6AE972E00E94E2211F910F91FF9077
:10247000EF900895CF92DF92EF92FF920F931F9308
:10248000DF93CF93CDB7DEB72E970FB6F894DEBFAC
:102490000FBECDBF6C01FA01683C710579F48081F3
:1024A0006181428123810E94CA10C60167EA72E0FD
:1024B0000E94C321C6016CEA72E011C0693C71053B
:1024C00089F480816181428123810E949E10C6012E
:1024D0006AEB72E00E94C321C6016FEB72E00E94BA
:1024E000E2218EC06A3C710579F48081618142816C
:1024F00023810E947210C60168EC72E00E94C32121
:10250000C6016DEC72E0EBCF6B3C710589F4808104
:102510006181428123810481E5800E943D10C601D2
:102520006AED72E00E94C321C6016FED72E0D7CF61
:102530006C3C710541F469EE72E00E94C321C60152
:102540006EEE72E0CCCF6D3C710561F480816181EB
:10255000428123810481E5800E940010C6016CEF56
:1025600072E0BDCF6E3C7105F1F47C0166E073E072
:102570000E94C32101E010E08FED94E0B8010E94B9
:102580004905482F50E060E070E0C7012AE030E0E4
:102590000E94AC220F5F1F4F0730110569F7C7017A
:1025A0000E94CB212DC06F3C7105A1F48AE294E01A
:1025B0009A838983F60182818B83838194819D83B1
:1025C0008C83858196819F838E83CE0101960E94A4
:1025D0004B0F16C0603D710599F48AE294E099872B
:1025E0008887F60182818A87838194819C878B8783
:1025F000858196819E878D87CE0108960E94FF1166
:102600002E960FB6F894DEBF0FBECDBFCF91DF91EF
:102610001F910F91FF90EF90DF90CF900895FC01F4
:10262000618170E064577F4F8FED94E040810E949C
:1026300050050895EF92FF920F931F93DF93CF936E
:10264000CDB7DEB762970FB6F894DEBF0FBECDBF31
:1026500080EC898388EA8A831B8281E08C837E01F7
:102660000894E11CF11C04E610E08FED94E0B80141
:102670000E944905F70181937F010F5F1F4F0836C4
:10268000110599F780EC8D8388EA8E831F8281EB98
:10269000888765E0E62EF12CEC0EFD1E08E610E0C2
:1026A0008FED94E0B8010E944905F70181937F0105
:1026B0000F5F1F4F0C36110599F78FEF89878A87B7
:1026C0008B871C8659E0E52EF12CEC0EFD1E0CE6E6
:1026D00010E08FED94E0B8010E944905F701819365
:1026E0007F010F5F1F4F0037110599F7DE011D961F
:1026F000EAE3F4E086E001900D928150E1F74DE0CD
:10270000E42EF12CEC0EFD1E00E710E08FED94E0BE
:10271000B8010E944905F70181937F010F5F1F4FA8
:102720000637110599F788EE94E0BE01635F7F4F8D
:10273000AE014B5F5F4F9E012F5F3F4F8E01075FE2
:102740001F4F0E94380762960FB6F894DEBF0FBE87
:10275000CDBFCF91DF911F910F91FF90EF90089522
:102760000F931F93182F092F8CE295E06BE073E015
:102770000E940106812F902F6CE073E00E94C3211C
:10278000812F902F60E173E00E94E2211F910F9151
:1027900008950F931F93CF93DF93EC010E94EB06F4
:1027A0008C018FED94E061E070E00E94490590E0BB
:1027B0000817190709F04BC0CE010E94EB068C01E7
:1027C0008FED94E062E070E00E94490590E0081708
:1027D0001907E9F5CE010E94EB068C018FED94E01C
:1027E00063E070E00E94490590E00817190779F549
:1027F000CE010E94EB068C018FED94E064E070E066
:102800000E94490590E00817190709F5CE010E94BA
:10281000EB068C018FED94E065E070E00E944905C5
:1028200090E00817190799F4CE010E94EB068C017D
:102830008FED94E066E070E00E94490520E090E0B2
:102840000817190709F021E081E0282701C020E0DE
:10285000822FDF91CF911F910F91089582E697E02B
:102860000E941B208823B1F082E697E00E942F206F
:10287000682F8CE295E00E94FE0580912E059091D4
:102880002F058536910534F08CE295E06BE073E01E
:102890000E94010608950F931F938C010E9429073F
:1028A000C8016DE173E00E9429071F910F910895FF
:1028B0001F93CF93DF93CCE8D0E010E08FED94E04E
:1028C000BE010E944905813081F08FED94E0BE0188
:1028D0000E944905823019F4812F61E008C08FED14
:1028E00094E0BE0141E00E945005812F60E00E940B
:1028F000E71C21961F5F123309F7DF91CF911F91DB
:102900000895EF92FF920F931F93DF93CF93CDB76C
:10291000DEB72E970FB6F894DEBF0FBECDBF7C0199
:102920008B01FB018081813001F5818160E00E9493
:10293000E71CC8010E940F13C7016FE173E00E94FA
:10294000C3218AE294E09A838983F70182818B8391
:10295000838194819D838C83858196819F838E83DF
:10296000CE01019662E273E022C0823011F5FB01D4
:10297000818161E00E94E71CC8010E940F13C7011A
:102980006FE173E00E94C3218AE294E0998788870F
:10299000F70182818A87838194819C878B878581D7
:1029A00096819E878D87CE0108966EE273E00E9425
:1029B0004B142E960FB6F894DEBF0FBECDBFCF914D
:1029C000DF911F910F91FF90EF9008950F931F9348
:1029D000DF93CF93CDB7DEB72E970FB6F894DEBF57
:1029E0000FBECDBF8C01FB0180818130E9F4818174
:1029F00061E00E94071DC8016BE373E00E94C321E0
:102A00008AE294E09A838983F80182818B838381AF
:102A100094819D838C83858196819F838E83CE0153
:102A200001966EE373E01EC08230F1F4818160E0B4
:102A30000E94071DC8016BE373E00E94C3218AE274
:102A400094E099878887F80182818A8783819481BD
:102A50009C878B87858196819E878D87CE0108967E
:102A600069E473E00E944B142E960FB6F894DEBF13
:102A70000FBECDBFCF91DF911F910F9108950F939E
:102A80001F93DF93CF93CDB7DEB727970FB6F89498
:102A9000DEBF0FBECDBF8C01FB016081818170E084
:102AA0000E942B1CC80163E573E00E94C3218AE2E7
:102AB00094E09A838983F80182818B838381948156
:102AC0009D838C83858196819F838E83CE01019621
:102AD00066E573E00E944B1427960FB6F894DEBFAC
:102AE0000FBECDBFCF91DF911F910F9108950F932E
:102AF0001F93DF93CF93CDB7DEB727970FB6F89428
:102B0000DEBF0FBECDBF8C01FB01608189E295E085
:102B100070E00E94C903C80160E673E00E94C3210F
:102B20008AE294E09A838983F80182818B8383818E
:102B300094819D838C83858196819F838E83CE0132
:102B4000019663E673E00E944B1427960FB6F89443
:102B5000DEBF0FBECDBFCF91DF911F910F910895C2
:102B6000EF92FF920F931F93DF93CF93CDB7DEB712
:102B70002E970FB6F894DEBF0FBECDBF8C01FB01C0
:102B800060817AE2E72E74E0F72E653BE0F489E29B
:102B900095E070E00E94B102C8016FE673E00E9408
:102BA000C321FA82E982F80182818B838381948137
:102BB0009D838C83858196819F838E83CE01019630
:102BC00062E773E015C06FE673E00E94C321F986E7
:102BD000E886F80182818A87838194819C878B872C
:102BE000858196819E878D87CE0108966CE773E07C
:102BF0000E944B142E960FB6F894DEBF0FBECDBFC9
:102C0000CF91DF911F910F91FF90EF900895EF9278
:102C1000FF920F931F93F82EE92E8B0166E873E065
:102C20000E94C321F80180810E94FB1BAC01662732
:102C300057FD6095762F8F2D9E2D2AE030E00E9463
:102C4000C1221F910F91FF90EF900895EF92FF9294
:102C50000F931F93F82EE92E8B0169E873E00E9411
:102C6000C321F80180810E94921DAC01662757FDA7
:102C70006095762F8F2D9E2D2AE030E00E94C12294
:102C80001F910F91FF90EF9008950F931F93CF9393
:102C9000DF938C016CE873E00E94C321CCE8D0E0A4
:102CA0008FED94E0BE010E944905482F50E060E09E
:102CB00070E0C8012AE030E00E94AC22C8016FE851
:102CC00073E00E94C3219E012C58822F0E94921D06
:102CD000AC01662757FD6095762FC8012AE030E0E9
:102CE0000E94AC22C80161E973E00E94C3212196D1
:102CF000CE3BD105A9F6C0E0D0E08C2F0E94FB1B93
:102D0000AC01662757FD6095762FC8012AE030E0B8
:102D10000E94AC22CF30D10531F0C80161E973E0E7
:102D20000E94C32103C0C8010E94CB212196C0315B
:102D3000D10519F7DF91CF911F910F9108950F934E
:102D40001F93182F092FFB0182E697E060810E94F4
:102D5000B321812F902F63E973E00E94C321812F5B
:102D6000902F66E973E00E94E2211F910F91089570
:102D70000F931F93182F092F82E697E040E05BE442
:102D800060E070E00E94221F812F902F66EA73E0BE
:102D90000E94C321812F902F6AEA73E00E94E221F2
:102DA0001F910F9108950F931F93182F092F8CE2F5
:102DB00095E06BE073E00E94010682E697E00E94D6
:102DC0007620812F902F6EEB73E00E94C321812F1C
:102DD000902F62EC73E00E94C3211F910F91089520
:102DE0000F931F93182F092F89E295E00E94660226
:102DF000812F902F6DEC73E00E94C321812F902FC3
:102E000061ED73E00E94E2211F910F910895AF924E
:102E1000BF92CF92DF92EF92FF920F931F93DF93B7
:102E2000CF93CDB7DEB7C956D0400FB6F894DEBF0A
:102E30000FBECDBFFC01CDB6DEB6238130E040E051
:102E400050E0928180E0AA2797FDA095BA2F282B09
:102E5000392B4A2B5B2B209332053093330540935B
:102E60003405509335058901278130E040E050E07A
:102E7000968180E0AA2797FDA095BA2F282B392BA1
:102E80004A2B5B2B20933205309333054093340556
:102E900050933505A901445050408DB79EB7841B0F
:102EA000950B0FB6F8949EBF0FBE8DBFEDB6FEB664
:102EB0000894E11CF11C1416150684F49F01A0E08F
:102EC000B0E05701AA0EBB1EF9018085F501808391
:102ED00011962F5F3F4FA417B5079CF301301105E2
:102EE000D9F48AE294E09A838983DB0112968C916B
:102EF00012978B8313968D919C9114979D838C834D
:102F000015968D919C9116979F838E83CE01019685
:102F1000B7010E9481149AC102301105A9F48AE216
:102F200094E099878887FB0182818A8783819481D5
:102F30009C878B87858196819E878D87CE01089699
:102F4000B7010E94E61482C103301105D9F48AE268
:102F500094E0988B8F87DB0112968C911297898B66
:102F600013968D919C9114979B8B8A8B15968D91BE
:102F70009C9116979D8B8C8BCE010F96B7010E946A
:102F80003F1564C104301105A9F48AE294E09F8BD7
:102F90008E8BFB018281888F838194819A8F898FA8
:102FA000858196819C8F8B8FCE014696B7010E94BA
:102FB00077154CC105301105D9F48AE294E09E8F53
:102FC0008D8FDB0112968C9112978F8F13968D91B6
:102FD0009C91149799A388A315968D919C9116970F
:102FE0009BA38AA3CE014D96B7010E94B0152EC1B6
:102FF00006301105A9F48AE294E09DA38CA3FB019D
:1030000082818EA38381948198A78FA385819681E5
:103010009AA789A7CE018496B7010E94071616C108
:1030200007301105D9F48AE294E09CA78BA7DB0155
:1030300012968C9112978DA713968D919C9114974F
:103040009FA78EA715968D919C91169799AB88ABEB
:10305000CE018B96B7010E942616F8C008301105E4
:10306000A1F48AE294E09BAB8AABFB0182818CAB3A
:10307000838194819EAB8DAB8581968198AF8FAB18
:10308000CE01C2960E944516E1C0C801885C9040FE
:103090000997E0F48AE294E09AAF89AFDB011296D7
:1030A0008C9112978BAF13968D919C9114979DAF35
:1030B0008CAF15968D919C9116979FAF8EAFCE01D8
:1030C000C996B801A7010E943A12C0C00930110583
:1030D00019F5DE01A05CBF4F8AE294E011969C9343
:1030E0008E93FB018281FE01EE5BFF4F8083FB012B
:1030F00083819481FE01ED5BFF4F91838083FB010F
:1031000085819681FE01EB5BFF4F91838083CD012A
:10311000B7010E949F169AC00A301105E1F4FE0122
:10312000E95BFF4F8AE294E091838083DB01129692
:103130008C911297828313968D919C91149794830E
:10314000838315968D919C91169796838583CF01E5
:103150000E94800E7BC00B301105E1F4FE01E25BA2
:10316000FF4F8AE294E091838083DB0112968C9179
:103170001297828313968D919C91149794838383E5
:1031800015968D919C91169796838583CF010E9409
:10319000B0135CC00C301105E1F4FE01EB5AFF4F97
:1031A0008AE294E091838083DB0112968C911297DE
:1031B000828313968D919C911497948383831596A3
:1031C0008D919C91169796838583CF010E94B816A6
:1031D0003DC00D301105E1F4FE01E45AFF4F8AE2D3
:1031E00094E091838083DB0112968C911297828305
:1031F00013968D919C9114979483838315968D914A
:103200009C91169796838583CF010E94D3161EC08A
:103210000E301105D9F4FE01ED59FF4F8AE294E01A
:1032200091838083DB0112968C911297828313968F
:103230008D919C9114979483838315968D919C9185
:10324000169796838583CF010E94F0160FB6F894E7
:10325000DEBE0FBECDBEC759DF4F0FB6F894DEBF3E
:103260000FBECDBFCF91DF911F910F91FF90EF90D7
:10327000DF90CF90BF90AF9008956F927F928F9222
:103280009F92BF92CF92DF92EF92FF920F931F9384
:10329000DF93CF93CDB7DEB727970FB6F894DEBF95
:1032A0000FBECDBF4C016DB67EB60E94EB06D82E88
:1032B000C4010E94EB06C82EC4010E94EB06B82E82
:1032C000C4010E94EB06FD2CFF24EE240027F7FC2E
:1032D0000095102F3C2D332720E0442737FD4095E3
:1032E000542FE22AF32A042B152B90E0A0E0B0E043
:1032F000E82AF92A0A2B1B2B9B2D80E0AA2797FD91
:10330000A095BA2FE82AF92A0A2B1B2BE092320546
:10331000F0923305009334051093350567018CEF67
:103320009FEFC80ED91EEDB7FEB7EC19FD090FB619
:10333000F894FEBF0FBEEDBFEDB6FEB60894E11CDB
:10334000F11C00E010E009C0C4010E94EB06F70187
:10335000E00FF11F80830F5F1F4F0C151D05A4F3B5
:103360008AE294E09A838983F40182818B8383814A
:1033700094819D838C83858196819F838E83C701F1
:10338000BE016F5F7F4F0E9407170FB6F8947EBE95
:103390000FBE6DBE27960FB6F894DEBF0FBECDBF31
:1033A000CF91DF911F910F91FF90EF90DF90CF9021
:1033B000BF909F908F907F906F900895CF92DF92F3
:1033C000FF920F931F93DF93CF93CDB7DEB76B9729
:1033D0000FB6F894DEBF0FBECDBF8E01095F1F4F41
:1033E000C80165E275E00E948B08C8010E946C0666
:1033F000882309F483C08FE195E06BE073E00E94BD
:103400000106C801F92E6E010894C11CD11C65C0CB
:10341000802F9F2D0E94BF06892B09F45EC0C60134
:103420006EED73E00E9440068FE195E0B6010E94C8
:103430006205182FC6010E945C05112381F4802FBC
:103440009F2D0E94EB06182F8FE195E0612F0E94BF
:10345000FE058FE497E0612F0E94BB213EC0802FC4
:103460009F2D62EE73E00E94E221802F9F2D62EF7C
:1034700073E00E94E221802F9F2D0E94CB21EAE27F
:10348000CE2EE4E0DE2EDF86CE868985888B8A8587
:103490009B859A8B898B8C859D859C8B8B8BCE0194
:1034A0000E960E94C913882389F0DE8ACD8A898509
:1034B0008F8B8A859B85998F888F8C859D859B8F27
:1034C0008A8FCE0145960E943D190EC0802F9F2DF8
:1034D0006AE074E00E94E22107C0802F9F2D0E94C5
:1034E000CB06882309F094CF61E070E080E090E0A3
:1034F0000E94701BCE0107960E947D066B960FB648
:10350000F894DEBF0FBECDBFCF91DF911F910F9119
:10351000FF90DF90CF900895EF92FF920F931F934B
:10352000DF93CF93CDB7DEB765970FB6F894DEBFC4
:103530000FBECDBF8E010F5F1F4FC8016BE175E05D
:103540000E948B08C8010E946C06882361F1FAE290
:10355000EF2EF4E0FF2EF986E8868B818A878C8136
:103560009D819C878B878E819F819E878D87CE01D1
:1035700008960E94C913882389F0F88AEF868B8108
:10358000898B8C819D819B8B8A8B8E819F819D8B6A
:103590008C8BCE010F960E943D1905C0C80164E1D5
:1035A00074E00E94290765960FB6F894DEBF0FBE3F
:1035B000CDBFCF91DF911F910F91FF90EF900895B4
:1035C0000E94F61061E070E080E090E00E94701BC5
:1035D0000E948C1A61E070E080E090E00E94701B15
:1035E0000E94DE1961E070E080E090E00E94701BB4
:1035F0000E942E1408958FE497E040E855E260E0C1
:1036000070E00E94221F82E00E9435100E94581430
:103610000E941A138BE195E00E94920785E295E0E3
:103620000E94920708950E949A1B0E94FB1A0E9412
:10363000E01AFDCF1F920F920FB60F9211242F9315
:103640003F938F939F93AF93BF9380913A0590914F
:103650003B05A0913C05B0913D0530913E0501969A
:10366000A11DB11D232F2D5F2D3720F02D57019661
:10367000A11DB11D20933E0580933A0590933B0513
:10368000A0933C05B0933D05809136059091370598
:10369000A0913805B09139050196A11DB11D809307
:1036A000360590933705A0933805B0933905BF913F
:1036B000AF919F918F913F912F910F900FBE0F90DF
:1036C0001F9018958FB7F89420913A0530913B05DB
:1036D00040913C0550913D058FBFB901CA01089545
:1036E000EF92FF920F931F937B018C018FB7F89499
:1036F00040913A0550913B0560913C0570913D0524
:103700008FBF2FB7F89480913A0590913B05A09117
:103710003C05B0913D052FBF841B950BA60BB70B45
:10372000E816F9060A071B0760F71F910F91FF9033
:10373000EF900895789484B5826084BD84B58160EB
:1037400084BD85B5826085BD85B5816085BDEEE6A9
:10375000F0E0808181608083E1E8F0E08081826038
:103760008083808181608083E0E8F0E080818160F7
:103770008083E1EBF0E0808184608083E0EBF0E027
:10378000808181608083E1E9F0E0808182608083D4
:10379000808181608083E1EAF0E0808182608083C3
:1037A000808181608083E1E2F1E0808182608083BA
:1037B000808181608083E0E9F0E0808181608083A6
:1037C000E0EAF0E0808181608083E0E2F1E08081E6
:1037D00081608083EAE7F0E080818460808380817B
:1037E0008260808380818160808380818068808323
:1037F0001092C1000895382F3F7020912504229522
:10380000220F220F207C232B20937C0020917B0011
:1038100086958695869590E08170907033E0880F4C
:10382000991F3A95E1F7277F282B20937B00809101
:103830007A00806480937A0080917A0086FDFCCFC4
:103840002091780040917900942F80E030E0282B7F
:10385000392BC90108951F93CF93DF93182FEB01E4
:1038600061E00E94E71CE12FF0E0E254FE4F8491FA
:10387000833051F480918000806880938000D093E1
:103880008900C09388009FC0843051F480918000EB
:10389000806280938000D0938B00C0938A0093C095
:1038A000813041F4209709F487C084B5806884BDD5
:1038B000C7BD89C0823041F4209709F47DC084B52A
:1038C000806284BDC8BD7FC0863041F48091B00065
:1038D00080688093B000C093B30075C0873041F416
:1038E0008091B00080628093B000C093B4006BC040
:1038F000883051F480919000806880939000D0933C
:103900009900C09398005FC0893051F48091900075
:10391000806280939000D0939B00C0939A0053C024
:103920008A3051F480919000886080939000D09309
:103930009D00C0939C0047C08B3051F48091A00043
:1039400080688093A000D093A900C093A8003BC0DA
:1039500084918C3051F48091A00080628093A0000B
:10396000D093AB00C093AA002EC08D3051F480914B
:10397000A00088608093A000D093AD00C093AC00FD
:1039800022C08E3051F48091200180688093200104
:10399000D0932901C093280116C08F3051F4809133
:1039A0002001806280932001D0932B01C0932A01D3
:1039B0000AC0C038D1051CF4812F60E002C0812FFD
:1039C00061E00E94071DDF91CF911F910895282F7C
:1039D00030E0C90188589E4FFC0194912E5C3E4F07
:1039E000F9018491882391F0E82FF0E0EE0FFF1F9A
:1039F000EC51FF4FA591B491662329F48C919095D9
:103A000089238C9308958C91892B8C930895482F4A
:103A100050E0CA0182549E4FFC012491CA0188588B
:103A20009E4FFC0194914E5C5E4FFA01349133231A
:103A300009F477C0222309F462C0233021F4809175
:103A400080008F7705C0243031F4809180008F7D15
:103A50008093800054C0213019F484B58F7704C05E
:103A6000223021F484B58F7D84BD49C0263021F4F5
:103A70008091B0008F7705C0273031F48091B0007D
:103A80008F7D8093B0003BC0283021F4809190005E
:103A90008F7705C0293031F4809190008F7D80931D
:103AA00090002DC02A3021F480919000877FF7CFBD
:103AB0002B3021F48091A0008F770BC02C3021F4A3
:103AC0008091A0008F7D05C02D3031F48091A00041
:103AD000877F8093A00013C02E3021F480912001B5
:103AE0008F770BC02F3021F4809120018F7D05C08E
:103AF000203129F480912001877F80932001E32FDA
:103B0000F0E0EE0FFF1FE250FF4FA591B491662346
:103B100029F48C91909589238C9308958C91892B0D
:103B20008C930895682F70E0CB0182549E4FFC0166
:103B30002491CB0188589E4FFC0144916E5C7E4FCE
:103B4000FB019491992319F420E030E075C0222301
:103B500009F462C0233021F4809180008F7705C082
:103B6000243031F4809180008F7D8093800054C098
:103B7000213019F484B58F7704C0223021F484B544
:103B80008F7D84BD49C0263021F48091B0008F77AD
:103B900005C0273031F48091B0008F7D8093B00054
:103BA0003BC0283021F4809190008F7705C02930E8
:103BB00031F4809190008F7D809390002DC02A3049
:103BC00021F480919000877FF7CF2B3021F48091F2
:103BD000A0008F770BC02C3021F48091A0008F7D46
:103BE00005C02D3031F48091A000877F8093A00024
:103BF00013C02E3021F4809120018F770BC02F301D
:103C000021F4809120018F7D05C0203129F480911D
:103C10002001877F80932001892F90E0880F991FD2
:103C2000885E9E4FFC01A591B4918C9120E030E01C
:103C3000842311F021E030E0C90108951F920F9212
:103C40000FB60F920BB60F9211242F933F934F9301
:103C50005F936F937F938F939F93AF93BF93EF93F4
:103C6000FF934091C600E091BF05F091C005CF01E0
:103C7000019660E870E00E9440239C018091C1059C
:103C80009091C2052817390739F0E15CFA4F40835B
:103C90003093C0052093BF05FF91EF91BF91AF9185
:103CA0009F918F917F916F915F914F913F912F9154
:103CB0000F900BBE0F900FBE0F901F9018951F9284
:103CC0000F920FB60F920BB60F9211242F933F93C2
:103CD0004F935F936F937F938F939F93AF93BF9314
:103CE000EF93FF934091CE00E0914306F09144069C
:103CF000CF01019660E870E00E9440239C01809112
:103D00004506909146062817390739F0ED53FA4FCA
:103D100040833093440620934306FF91EF91BF9177
:103D2000AF919F918F917F916F915F914F913F9153
:103D30002F910F900BBE0F900FBE0F901F901895F4
:103D40001F920F920FB60F920BB60F9211242F9362
:103D50003F934F935F936F937F938F939F93AF9313
:103D6000BF93EF93FF934091D600E091C706F09187
:103D7000C806CF01019660E870E00E9440239C01D4
:103D80008091C9069091CA062817390739F0E95B76
:103D9000F94F40833093C8062093C706FF91EF91F7
:103DA000BF91AF919F918F917F916F915F914F9153
:103DB0003F912F910F900BBE0F900FBE0F901F9051
:103DC00018951F920F920FB60F920BB60F921124F7
:103DD0002F933F934F935F936F937F938F939F9313
:103DE000AF93BF93EF93FF9340913601E0914B0760
:103DF000F0914C07CF01019660E870E00E944023EB
:103E00009C0180914D0790914E072817390739F092
:103E1000E553F94F408330934C0720934B07FF91B4
:103E2000EF91BF91AF919F918F917F916F915F9132
:103E30004F913F912F910F900BBE0F900FBE0F909F
:103E40001F9018955F926F927F928F929F92AF9280
:103E5000BF92CF92DF92EF92FF920F931F93CF9377
:103E6000DF93EC013A014B01413482E458078FE0C3
:103E7000680780E078070CF07FC060E874E88EE1A6
:103E800090E0A40193010E947523215030404040EE
:103E90005040CA01B90122E030E040E050E00E9409
:103EA000752359016A01A601950120953095409529
:103EB000509594E0220F331F441F551F9A95D1F758
:103EC00060E074E284EF90E00E947523CA01B901BA
:103ED0002FEF30E040E050E00E941523A401930151
:103EE0000E947523C90181509F4F181619061CF4B2
:103EF000522E5A9403C055245394521A60E079E02C
:103F00008DE390E0A40193010E947523215030407D
:103F100040405040CA01B90122E030E040E050E0AA
:103F20000E947523209530954095509583E0220F8F
:103F3000331F441F551F8A95D1F760E074E284EF68
:103F400090E00E947523CA01B9012FEF30E040E0F4
:103F500050E00E941523A40193010E947523C9011A
:103F600081509F4F181619061CF4822F815002C0F1
:103F700081E0821B851500F5E885F98581E090E0F8
:103F80000A8802C0880F991F0A94E2F7808360E0D4
:103F900079E08DE390E0A40193010E947523215004
:103FA000304040405040CA01B90122E030E040E0DA
:103FB00050E00E94752304C0E885F98510829501C0
:103FC000EC81FD813083EE81FF812083EA85FB85D2
:103FD000208141E050E0CA010E8402C0880F991F81
:103FE0000A94E2F7282B2083EA85FB852081CA0109
:103FF0000F8402C0880F991F0A94E2F7282B2083B0
:10400000EA85FB858081088802C0440F551F0A9409
:10401000E2F7842B8083DF91CF911F910F91FF9066
:10402000EF90DF90CF90BF90AF909F908F907F9058
:104030006F905F900895DC011296ED91FC911397BB
:10404000E058FF4F8191919180589F4F208131819D
:10405000821B930B60E870E00E9440230895CF9389
:10406000DF93DC011296ED91FC911397EF01CE578F
:10407000DF4F48815981E058FF4F80819181E0589E
:10408000F0408417950719F42FEF3FEF0CC0E40FB1
:10409000F51F2081CA01019660E870E00E9440236C
:1040A0009983888330E0C901DF91CF910895DC01C5
:1040B0001296ED91FC911397EE57FF4F80819181FD
:1040C000929382930895FC01A085B18521898C91FA
:1040D00090E0022E02C0959587950A94E2F780FF42
:1040E000F6CF0484F585E02D60830895FC015FB769
:1040F000F894A285B3854C9121E030E0C901068493
:1041000002C0880F991F0A94E2F7809584238C934C
:10411000A285B3854C91C901078402C0880F991FFD
:104120000A94E2F7809584238C93A285B3858C91C1
:10413000008802C0220F331F0A94E2F7209528233B
:104140002C930280F381E02DEE57FF4F8081918107
:10415000929382935FBF089524E434E03093500734
:1041600020934F078FE395E0909352078093510778
:1041700085EC90E0909354078093530784EC90E093
:10418000909356078093550780EC90E090935807E2
:104190008093570781EC90E090935A0780935907DA
:1041A00086EC90E090935C0780935B07E4E0E093FB
:1041B0005D0773E070935E0767E060935F0755E00B
:1041C0005093600741E04093610730936307209369
:1041D000620783EC95E090936507809364078DEC0C
:1041E00090E090936707809366078CEC90E0909343
:1041F00069078093680788EC90E090936B07809341
:104200006A0789EC90E090936D0780936C078EECC1
:1042100090E090936F0780936E07E0937007709320
:10422000710760937207509373074093740730933C
:1042300076072093750787E496E09093780780933C
:10424000770785ED90E090937A078093790784ED66
:1042500090E090937C0780937B0780ED90E09093B3
:104260007E0780937D0781ED90E090938007809397
:104270007F0786ED90E09093820780938107E0931B
:104280008307709384076093850750938607409354
:10429000870730938907209388078BEC96E09093EB
:1042A0008B0780938A0785E391E090938D07809335
:1042B0008C0784E391E090938F0780938E0780E3CF
:1042C00091E0909391078093900781E391E0909320
:1042D00093078093920786E391E0909395078093EC
:1042E0009407E0939607709397076093980750930D
:1042F000990740939A0708950F931F93CF93DF93E5
:104300008C01EB0109C02196D801ED91FC9101903F
:10431000F081E02DC801099568816623A1F7DF913E
:10432000CF911F910F910895EF92FF920F931F93DA
:10433000CF93DF938C017B01EA010CC0D7016D9113
:104340007D01D801ED91FC910190F081E02DC80133
:1043500009952197209791F7DF91CF911F910F91A8
:10436000FF90EF900895DC01ED91FC910190F081B8
:10437000E02D09950895DC01ED91FC910190F0810B
:10438000E02D09950895DC01ED91FC910280F38107
:10439000E02D099508950F931F938C01DC01ED9199
:1043A000FC910190F081E02D6DE00995D801ED912F
:1043B000FC910190F081E02DC8016AE009951F9100
:1043C0000F9108950F931F938C010E94C321C80180
:1043D0000E94CB211F910F9108952F923F924F92EF
:1043E0005F926F927F928F929F92AF92BF92CF9285
:1043F000DF92EF92FF920F931F93DF93CF93CDB78E
:10440000DEB7A0970FB6F894DEBF0FBECDBF1C017C
:104410006A017B01411551056105710549F4DC0113
:10442000ED91FC910190F081E02D60E3099554C07D
:10443000882499245401422E55246624772401E0CF
:1044400010E00C0F1D1F080D191DC701B601A301B7
:1044500092010E945323F80160830894811C911CEF
:10446000A11CB11CC701B601A30192010E945323F4
:10447000C901DA016C017D01C114D104E104F10428
:10448000F1F681E0E82EF12CEC0EFD1EE80CF91C93
:104490003E010894611C711CD501C4010197A1095A
:1044A000B1096C01C818D90814C0F601EE0DFF1D42
:1044B00060816A3010F4605D01C0695CD101ED91EA
:1044C000FC910190F081E02DC10109950894E1086B
:1044D000F1086E147F0449F7A0960FB6F894DEBF7A
:1044E0000FBECDBFCF91DF911F910F91FF90EF9045
:1044F000DF90CF90BF90AF909F908F907F906F9004
:104500005F904F903F902F900895EF92FF920F93FE
:104510001F93CF93DF93EC017A018B0177FF0FC0DC
:10452000E881F9810190F081E02D6DE20995109507
:104530000095F094E094E11CF11C011D111DCE01C9
:10454000B801A7012AE00E94ED21DF91CF911F91D0
:104550000F91FF90EF900895DC012115310541F492
:10456000ED91FC910190F081E02D642F0995089563
:104570002A30310519F40E94852208950E94ED2108
:1045800008950F931F938C010E94AC22C8010E94D2
:10459000CB211F910F9108952F923F924F925F92DE
:1045A0006F927F928F929F92AF92BF92CF92DF9243
:1045B000EF92FF920F931F93DF93CF93CDB7DEB7A8
:1045C0003B014C0119012A016D897E898F89988DE3
:1045D0006A197B098C099D09621A730A840A950A73
:1045E000A40193010E941523E218F3080409150998
:1045F000A80197010E9475232A0D3B1D4C1D5D1DCE
:10460000B901CA01CF91DF911F910F91FF90EF90F7
:10461000DF90CF90BF90AF909F908F907F906F90E2
:104620005F904F903F902F900895629FD001739FAD
:10463000F001829FE00DF11D649FE00DF11D929F3E
:10464000F00D839FF00D749FF00D659FF00D99277D
:10465000729FB00DE11DF91F639FB00DE11DF91FA1
:10466000BD01CF0111240895991B79E004C0991F61
:10467000961708F0961B881F7A95C9F780950895BC
:1046800097FB092E07260AD077FD04D049D006D023
:1046900000201AF4709561957F4F0895F6F7909574
:1046A00081959F4F0895A1E21A2EAA1BBB1BFD0105
:1046B0000DC0AA1FBB1FEE1FFF1FA217B307E40701
:1046C000F50720F0A21BB30BE40BF50B661F771F59
:1046D000881F991F1A9469F7609570958095909539
:1046E0009B01AC01BD01CF01089597FB092E052662
:1046F0000ED057FD04D0D7DF0AD0001C38F45095F7
:104700004095309521953F4F4F4F5F4F0895F6F7F5
:1047100090958095709561957F4F8F4F9F4F08952D
:10472000AA1BBB1B51E107C0AA1FBB1FA617B707D7
:1047300010F0A61BB70B881F991F5A95A9F78095F3
:104740009095BC01CD010895EE0FFF1F0590F491E7
:10475000E02D099412E0C8E0D2E004C0FE010E94FE
:0E476000A6232296CA30D107C9F7F894FFCFDE
:10476E0000302E390031303A004459536D61727465
:10477E0020763A00416C70686120312E300048611D
:10478E0072647765617220763A006761746577614D
:10479E00793A0069703A007375626E65743A004D2D
:1047AE0061633A003230373A004761746577617958
:1047BE002053657465647C004950205365746564AC
:1047CE007C005375626E65742053657465647C005D
:1047DE004D61632053657465647C004944205365C4
:1047EE007465647C005057442053657465647C0086
:1047FE007077643A003230383A007265736574200F
:10480E0066696E697368003230303A0047617465CC
:10481E00776179205365746564003230313A00490E
:10482E0050205365746564003230323A005375621D
:10483E006E6574205365746564003230333A004DF2
:10484E006163205365746564003230343A00494424
:10485E00206469646E277420536574005057442099
:10486E005365746564003230363A000031313A00D7
:10487E00636C6561722066696E697368000A003147
:10488E003A00696E707574207365746564006F7597
:10489E007470757420736574656400323A006869CB
:1048AE006768207365746564006C6F772073657438
:1048BE00656400333A0070776D207365746564002B
:1048CE00343A00736574766F2073657465640035D1
:1048DE003A00706F74207365746564006572726F50
:1048EE007220706F7400363A00373A00383A007C06
:1048FE00002C00393A0061706320446174612073AA
:10490E00656E6465640031323A00736574757020AB
:10491E006F6B2C626175643A31393230300031334D
:10492E003A0061706320636C6F7365640031343AD2
:10493E0000736572766F20636C6F736564000A0D89
:10494E000A00485454502F312E3120323030204F2F
:10495E004B00436F6E74656E742D547970653A20FA
:10496E00746578742F68746D6C007077642065724E
:10497E00726F7200707764206572726F720A002017
:10498E00009F0700000100000000140729070D0713
:10499E000000000066077E073908DEADBEEFFEEDB3
:0A49AE000000000063207C2194212A
:00000001FF
